{
  "address": "0x7099cC53821104484F7fDD51992C87715afF95a3",
  "abi": [
    {
      "inputs": [],
      "name": "CalldataMustHaveValidPayload",
      "type": "error"
    },
    {
      "inputs": [],
      "name": "CalldataOverOrUnderFlow",
      "type": "error"
    },
    {
      "inputs": [],
      "name": "CanNotPickMedianOfEmptyArray",
      "type": "error"
    },
    {
      "inputs": [],
      "name": "DataPackageTimestampMustNotBeZero",
      "type": "error"
    },
    {
      "inputs": [],
      "name": "DataPackageTimestampsMustBeEqual",
      "type": "error"
    },
    {
      "inputs": [],
      "name": "EachSignerMustProvideTheSameValue",
      "type": "error"
    },
    {
      "inputs": [],
      "name": "EmptyCalldataPointersArr",
      "type": "error"
    },
    {
      "inputs": [],
      "name": "GetDataServiceIdNotImplemented",
      "type": "error"
    },
    {
      "inputs": [],
      "name": "IncorrectUnsignedMetadataSize",
      "type": "error"
    },
    {
      "inputs": [
        {
          "internalType": "uint256",
          "name": "receivedSignersCount",
          "type": "uint256"
        },
        {
          "internalType": "uint256",
          "name": "requiredSignersCount",
          "type": "uint256"
        }
      ],
      "name": "InsufficientNumberOfUniqueSigners",
      "type": "error"
    },
    {
      "inputs": [],
      "name": "InvalidCalldataPointer",
      "type": "error"
    },
    {
      "inputs": [],
      "name": "RedstonePayloadMustHaveAtLeastOneDataPackage",
      "type": "error"
    },
    {
      "inputs": [
        {
          "internalType": "address",
          "name": "receivedSigner",
          "type": "address"
        }
      ],
      "name": "SignerNotAuthorised",
      "type": "error"
    },
    {
      "inputs": [
        {
          "internalType": "uint256",
          "name": "receivedTimestampSeconds",
          "type": "uint256"
        },
        {
          "internalType": "uint256",
          "name": "blockTimestamp",
          "type": "uint256"
        }
      ],
      "name": "TimestampFromTooLongFuture",
      "type": "error"
    },
    {
      "inputs": [
        {
          "internalType": "uint256",
          "name": "receivedTimestampSeconds",
          "type": "uint256"
        },
        {
          "internalType": "uint256",
          "name": "blockTimestamp",
          "type": "uint256"
        }
      ],
      "name": "TimestampIsTooOld",
      "type": "error"
    },
    {
      "anonymous": false,
      "inputs": [
        {
          "indexed": true,
          "internalType": "address",
          "name": "previousOwner",
          "type": "address"
        },
        {
          "indexed": true,
          "internalType": "address",
          "name": "newOwner",
          "type": "address"
        }
      ],
      "name": "OwnershipTransferred",
      "type": "event"
    },
    {
      "anonymous": false,
      "inputs": [
        {
          "indexed": false,
          "internalType": "uint128",
          "name": "updatedAt",
          "type": "uint128"
        },
        {
          "indexed": false,
          "internalType": "uint128",
          "name": "price",
          "type": "uint128"
        }
      ],
      "name": "UpdatePrice",
      "type": "event"
    },
    {
      "inputs": [
        {
          "internalType": "uint256[]",
          "name": "values",
          "type": "uint256[]"
        }
      ],
      "name": "aggregateValues",
      "outputs": [
        {
          "internalType": "uint256",
          "name": "",
          "type": "uint256"
        }
      ],
      "stateMutability": "view",
      "type": "function"
    },
    {
      "inputs": [],
      "name": "extractTimestampsAndAssertAllAreEqual",
      "outputs": [
        {
          "internalType": "uint256",
          "name": "extractedTimestamp",
          "type": "uint256"
        }
      ],
      "stateMutability": "pure",
      "type": "function"
    },
    {
      "inputs": [
        {
          "internalType": "address",
          "name": "signerAddress",
          "type": "address"
        }
      ],
      "name": "getAuthorisedSignerIndex",
      "outputs": [
        {
          "internalType": "uint8",
          "name": "",
          "type": "uint8"
        }
      ],
      "stateMutability": "view",
      "type": "function"
    },
    {
      "inputs": [],
      "name": "getDataServiceId",
      "outputs": [
        {
          "internalType": "string",
          "name": "",
          "type": "string"
        }
      ],
      "stateMutability": "view",
      "type": "function"
    },
    {
      "inputs": [],
      "name": "getPrice",
      "outputs": [
        {
          "internalType": "uint256",
          "name": "",
          "type": "uint256"
        }
      ],
      "stateMutability": "view",
      "type": "function"
    },
    {
      "inputs": [],
      "name": "getScale",
      "outputs": [
        {
          "internalType": "uint256",
          "name": "",
          "type": "uint256"
        }
      ],
      "stateMutability": "pure",
      "type": "function"
    },
    {
      "inputs": [],
      "name": "getUniqueSignersThreshold",
      "outputs": [
        {
          "internalType": "uint8",
          "name": "",
          "type": "uint8"
        }
      ],
      "stateMutability": "view",
      "type": "function"
    },
    {
      "inputs": [],
      "name": "isOwner",
      "outputs": [
        {
          "internalType": "bool",
          "name": "",
          "type": "bool"
        }
      ],
      "stateMutability": "view",
      "type": "function"
    },
    {
      "inputs": [],
      "name": "owner",
      "outputs": [
        {
          "internalType": "address",
          "name": "",
          "type": "address"
        }
      ],
      "stateMutability": "view",
      "type": "function"
    },
    {
      "inputs": [
        {
          "internalType": "uint256",
          "name": "receivedTimestampMilliseconds",
          "type": "uint256"
        }
      ],
      "name": "validateTimestamp",
      "outputs": [],
      "stateMutability": "view",
      "type": "function"
    }
  ],
  "transactionHash": "0x2595806236847b6f42b0c6b51e5c7c0cfd03e3887fb969d6015a6c9aec6769f3",
  "args": [],
  "numDeployments": 1,
  "solcInputHash": "de120765170a3d5f1d4c8363d3866a53",
  "bytecode": "0x608060405234801561001057600080fd5b50600080546001600160a01b0319163390811782556040519091907f8be0079c531659141344cd1fd0a4f28419497f9722a3daafe3b4186f6b6457e0908290a3610f7d8061005f6000396000f3fe608060405234801561001057600080fd5b506004361061009e5760003560e01c8063b24ebfcc11610066578063b24ebfcc14610124578063b5cddab814610137578063c274583a1461013e578063f50b2efe14610172578063f90c49241461018757600080fd5b80633ce142f5146100a357806355a547d5146100cd5780638da5cb5b146100e35780638f32d59b146100fe57806398d5fdca1461011c575b600080fd5b6100b66100b1366004610d2f565b61018e565b60405160ff90911681526020015b60405180910390f35b6100d56101e5565b6040519081526020016100c4565b6000546040516001600160a01b0390911681526020016100c4565b6000546001600160a01b0316331460405190151581526020016100c4565b6100d56102fd565b6100d5610132366004610d6e565b610313565b60086100d5565b604080518082018252601281527172656473746f6e652d6d61696e2d64656d6f60701b602082015290516100c49190610e20565b610185610180366004610e6e565b610324565b005b60016100b6565b60006001600160a01b038216730c39486f770b26f5527bbbf942726537986cd7eb036101bc57506000919050565b6040516303b1166f60e61b81526001600160a01b03831660048201526024015b60405180910390fd5b6000806101f0610330565b905060006101fd826103de565b61ffff1690508060000361022457604051632154bfcf60e21b815260040160405180910390fd5b61022f600283610e9d565b915060005b818110156102f757600061024784610418565b9050600080610257606887610e9d565b905060006102658236610eb0565b9050803592508265ffffffffffff1660000361029457604051630336dc9d60e41b815260040160405180910390fd5b876000036102ac578265ffffffffffff1697506102d4565b878365ffffffffffff16146102d45760405163d9d1f46560e01b815260040160405180910390fd5b6102de8488610e9d565b96505050505080806102ef90610ec3565b915050610234565b50505090565b600061030e624c534b60e81b610454565b905090565b600061031e826104c4565b92915050565b61032d816104cf565b50565b60006602ed57011e0000601f1936013581161480610361576040516373bb264f60e11b815260040160405180910390fd5b6000366029111561038557604051632bcb7bc560e11b815260040160405180910390fd5b50602819360135600060096103a0600362ffffff8516610e9d565b6103aa9190610e9d565b9050366103b8600283610e9d565b11156103d75760405163c30a7bd760e01b815260040160405180910390fd5b9392505050565b6000806103ec602084610e9d565b90503681111561040f57604051632bcb7bc560e11b815260040160405180910390fd5b36033592915050565b600080600061042684610553565b9092509050604e610438826020610e9d565b6104429084610edc565b61044c9190610e9d565b949350505050565b60408051600180825281830190925260009182919060208083019080368337019050509050828160008151811061048d5761048d610ef3565b6020026020010181815250506104a2816105aa565b6000815181106104b4576104b4610ef3565b6020026020010151915050919050565b600061031e826105b5565b60006104dd6103e883610f1f565b90508042101561051f57603c6104f34283610eb0565b111561051b5760405163b6b0916d60e01b8152600481018290524260248201526044016101dc565b5050565b60b461052b8242610eb0565b111561051b57604051630321d0b560e01b8152600481018290524260248201526044016101dc565b600080808080610564604187610e9d565b9050600061057d610576602084610e9d565b3690610670565b80359450905061058e816003610670565b62ffffff9490941697933563ffffffff16965092945050505050565b606061031e8261067c565b600081516000036105d957604051639e198af960e01b815260040160405180910390fd5b6105e282610840565b6000600283516105f29190610f1f565b9050600283516106029190610f33565b60000361065e5760006106518461061a600185610eb0565b8151811061062a5761062a610ef3565b602002602001015185848151811061064457610644610ef3565b602002602001015161088e565b905061044c600282610f1f565b8281815181106104b4576104b4610ef3565b60006103d78284610eb0565b60606000825167ffffffffffffffff81111561069a5761069a610d58565b6040519080825280602002602001820160405280156106c3578160200160208202803683370190505b5090506000835167ffffffffffffffff8111156106e2576106e2610d58565b60405190808252806020026020018201604052801561070b578160200160208202803683370190505b5090506000845167ffffffffffffffff81111561072a5761072a610d58565b60405190808252806020026020018201604052801561075d57816020015b60608152602001906001900390816107485790505b50905060005b85518110156107ba5760408051600180825281830190925290602080830190803683370190505082828151811061079c5761079c610ef3565b602002602001018190525080806107b290610ec3565b915050610763565b5060006107c5610330565b905060006107d2826103de565b61ffff1690506107e3600283610e9d565b60405190925060005b828110156108295760006108038a8989898961089a565b905061080f8186610e9d565b94508260405250808061082190610ec3565b9150506107ec565b506108348487610b33565b98975050505050505050565b8051602082016020820281019150805b8281101561088857815b8181101561087f578151815180821015610875578084528183525b505060200161085a565b50602001610850565b50505050565b60006103d78284610e9d565b6000806000806108a985610553565b909250905060008080606081600d6108cc6108c5602089610e9d565b8990610c4c565b6108d69190610e9d565b905060006108e861057660688d610e9d565b90506000610905836108fb60418f610e9d565b6105769190610e9d565b90506109118382610924565b9350826020850120945081359650610948565b60408051838152602081850181019092526000910183838237601f19019392505050565b6109598765ffffffffffff16610324565b61096d8561096860418f610e9d565b610c58565b95506109788661018e565b60ff1699505050505050505060008060005b84811015610b005761099d888583610cd0565b909350915060005b8c51811015610aed578c81815181106109c0576109c0610ef3565b60200260200101518403610adb5760008b82815181106109e2576109e2610ef3565b602002602001015190506109fb81896001901b16151590565b158015610a245750600160ff168d8381518110610a1a57610a1a610ef3565b6020026020010151105b15610ad5578c8281518110610a3b57610a3b610ef3565b602002602001018051809190610a5090610ec3565b81525050838b8381518110610a6757610a67610ef3565b602002602001015160018f8581518110610a8357610a83610ef3565b6020026020010151610a959190610eb0565b81518110610aa557610aa5610ef3565b60209081029190910101526001881b81178c8381518110610ac857610ac8610ef3565b6020026020010181815250505b50610aed565b80610ae581610ec3565b9150506109a5565b5080610af881610ec3565b91505061098a565b50505081602082610b119190610e9d565b610b1b9190610edc565b610b2690604e610e9d565b9998505050505050505050565b60606000835167ffffffffffffffff811115610b5157610b51610d58565b604051908082528060200260200182016040528015610b7a578160200160208202803683370190505b509050600160005b8551811015610c425781858281518110610b9e57610b9e610ef3565b60200260200101511015610beb57848181518110610bbe57610bbe610ef3565b602002602001015182604051632b13aef560e01b81526004016101dc929190918252602082015260400190565b6000610c0f878381518110610c0257610c02610ef3565b6020026020010151610313565b905080848381518110610c2457610c24610ef3565b60209081029190910101525080610c3a81610ec3565b915050610b82565b5090949350505050565b60006103d78284610edc565b60408051600080825260208083018085528690523685900380850135831a948401859052803560608501819052910135608084018190529193909260019060a0016020604051602081039080840390855afa158015610cbb573d6000803e3d6000fd5b5050604051601f190151979650505050505050565b60008080610cdf604e87610e9d565b90506000610d0c610d05610cf4602089610e9d565b610cff886001610e9d565b90610c4c565b839061088e565b90506000610d1a3683610670565b80359960209091013598509650505050505050565b600060208284031215610d4157600080fd5b81356001600160a01b03811681146103d757600080fd5b634e487b7160e01b600052604160045260246000fd5b60006020808385031215610d8157600080fd5b823567ffffffffffffffff80821115610d9957600080fd5b818501915085601f830112610dad57600080fd5b813581811115610dbf57610dbf610d58565b8060051b604051601f19603f83011681018181108582111715610de457610de4610d58565b604052918252848201925083810185019188831115610e0257600080fd5b938501935b8285101561083457843584529385019392850192610e07565b600060208083528351808285015260005b81811015610e4d57858101830151858201604001528201610e31565b506000604082860101526040601f19601f8301168501019250505092915050565b600060208284031215610e8057600080fd5b5035919050565b634e487b7160e01b600052601160045260246000fd5b8082018082111561031e5761031e610e87565b8181038181111561031e5761031e610e87565b600060018201610ed557610ed5610e87565b5060010190565b808202811582820484141761031e5761031e610e87565b634e487b7160e01b600052603260045260246000fd5b634e487b7160e01b600052601260045260246000fd5b600082610f2e57610f2e610f09565b500490565b600082610f4257610f42610f09565b50069056fea26469706673582212202d9cd80495ecc85038c954708a2079c01ad9909de30abc01d6925776e5b013a464736f6c63430008110033",
  "devdoc": {
    "kind": "dev",
    "methods": {
      "aggregateValues(uint256[])": {
        "details": "This function may be overridden by the child consumer contract. It should aggregate values from different signers to a single uint value. By default, it calculates the median value",
        "params": {
          "values": "An array of uint256 values from different signers"
        },
        "returns": {
          "_0": "Result of the aggregation in the form of a single number"
        }
      },
      "getDataServiceId()": {
        "details": "This function must be implemented by the child consumer contract. It should return dataServiceId which DataServiceWrapper will use if not provided explicitly . If not overridden, value will always have to be provided explicitly in DataServiceWrapper.",
        "returns": {
          "_0": "dataServiceId being consumed by contract"
        }
      },
      "getUniqueSignersThreshold()": {
        "details": "This function should be overridden by the child consumer contract.",
        "returns": {
          "_0": "The minimum required value of unique authorised signers"
        }
      },
      "isOwner()": {
        "details": "Returns true if the caller is the current owner."
      },
      "owner()": {
        "details": "Returns the address of the current owner."
      },
      "validateTimestamp(uint256)": {
        "details": "This function may be overridden by the child consumer contract. It should validate the timestamp against the current time (block.timestamp) It should revert with a helpful message if the timestamp is not valid",
        "params": {
          "receivedTimestampMilliseconds": "Timestamp extracted from calldata"
        }
      }
    },
    "version": 1
  },
  "userdoc": {
    "kind": "user",
    "methods": {},
    "version": 1
  },
  "storageLayout": {
    "storage": [
      {
        "astId": 3139,
        "contract": "contracts/PriceFeed.sol:PriceFeed",
        "label": "_owner",
        "offset": 0,
        "slot": "0",
        "type": "t_address"
      }
    ],
    "types": {
      "t_address": {
        "encoding": "inplace",
        "label": "address",
        "numberOfBytes": "20"
      }
    }
  }
}