{
  "address": "0xb7738817DbD16F9e588b4F493D283d1C729cd682",
  "abi": [
    {
      "inputs": [],
      "stateMutability": "nonpayable",
      "type": "constructor"
    },
    {
      "anonymous": false,
      "inputs": [
        {
          "indexed": true,
          "internalType": "address",
          "name": "owner",
          "type": "address"
        },
        {
          "indexed": false,
          "internalType": "uint256",
          "name": "vaultId",
          "type": "uint256"
        },
        {
          "indexed": false,
          "internalType": "uint128",
          "name": "coll",
          "type": "uint128"
        },
        {
          "indexed": false,
          "internalType": "uint128",
          "name": "dri",
          "type": "uint128"
        },
        {
          "indexed": false,
          "internalType": "uint128",
          "name": "cri",
          "type": "uint128"
        }
      ],
      "name": "CreateVault",
      "type": "event"
    },
    {
      "anonymous": false,
      "inputs": [
        {
          "indexed": true,
          "internalType": "address",
          "name": "owner",
          "type": "address"
        },
        {
          "indexed": false,
          "internalType": "uint256",
          "name": "vaultId",
          "type": "uint256"
        },
        {
          "indexed": false,
          "internalType": "uint128",
          "name": "coll",
          "type": "uint128"
        },
        {
          "indexed": false,
          "internalType": "uint128",
          "name": "dri",
          "type": "uint128"
        },
        {
          "indexed": false,
          "internalType": "uint128",
          "name": "cri",
          "type": "uint128"
        }
      ],
      "name": "DecreaseVaultColl",
      "type": "event"
    },
    {
      "anonymous": false,
      "inputs": [
        {
          "indexed": true,
          "internalType": "address",
          "name": "owner",
          "type": "address"
        },
        {
          "indexed": false,
          "internalType": "uint256",
          "name": "vaultId",
          "type": "uint256"
        },
        {
          "indexed": false,
          "internalType": "uint128",
          "name": "debt",
          "type": "uint128"
        },
        {
          "indexed": false,
          "internalType": "uint128",
          "name": "dri",
          "type": "uint128"
        },
        {
          "indexed": false,
          "internalType": "uint128",
          "name": "cri",
          "type": "uint128"
        }
      ],
      "name": "DecreaseVaultDebt",
      "type": "event"
    },
    {
      "anonymous": false,
      "inputs": [
        {
          "indexed": true,
          "internalType": "address",
          "name": "owner",
          "type": "address"
        },
        {
          "indexed": false,
          "internalType": "uint256",
          "name": "vaultId",
          "type": "uint256"
        },
        {
          "indexed": false,
          "internalType": "uint128",
          "name": "coll",
          "type": "uint128"
        },
        {
          "indexed": false,
          "internalType": "uint128",
          "name": "dri",
          "type": "uint128"
        },
        {
          "indexed": false,
          "internalType": "uint128",
          "name": "cri",
          "type": "uint128"
        }
      ],
      "name": "IncreaseVaultColl",
      "type": "event"
    },
    {
      "anonymous": false,
      "inputs": [
        {
          "indexed": true,
          "internalType": "address",
          "name": "owner",
          "type": "address"
        },
        {
          "indexed": false,
          "internalType": "uint256",
          "name": "vaultId",
          "type": "uint256"
        },
        {
          "indexed": false,
          "internalType": "uint128",
          "name": "debt",
          "type": "uint128"
        },
        {
          "indexed": false,
          "internalType": "uint128",
          "name": "dri",
          "type": "uint128"
        },
        {
          "indexed": false,
          "internalType": "uint128",
          "name": "cri",
          "type": "uint128"
        }
      ],
      "name": "IncreaseVaultDebt",
      "type": "event"
    },
    {
      "anonymous": false,
      "inputs": [
        {
          "indexed": true,
          "internalType": "address",
          "name": "liquidator",
          "type": "address"
        },
        {
          "indexed": true,
          "internalType": "address",
          "name": "owner",
          "type": "address"
        },
        {
          "indexed": false,
          "internalType": "uint256",
          "name": "vaultId",
          "type": "uint256"
        }
      ],
      "name": "Liquidate",
      "type": "event"
    },
    {
      "anonymous": false,
      "inputs": [
        {
          "indexed": true,
          "internalType": "address",
          "name": "redeemer",
          "type": "address"
        },
        {
          "indexed": false,
          "internalType": "uint256",
          "name": "debt",
          "type": "uint256"
        },
        {
          "indexed": false,
          "internalType": "uint256",
          "name": "coll",
          "type": "uint256"
        }
      ],
      "name": "Redeem",
      "type": "event"
    },
    {
      "inputs": [],
      "name": "collLocked",
      "outputs": [
        {
          "internalType": "uint256",
          "name": "",
          "type": "uint256"
        }
      ],
      "stateMutability": "view",
      "type": "function"
    },
    {
      "inputs": [
        {
          "internalType": "uint128",
          "name": "initialColl",
          "type": "uint128"
        }
      ],
      "name": "createVault",
      "outputs": [],
      "stateMutability": "payable",
      "type": "function"
    },
    {
      "inputs": [
        {
          "internalType": "uint256",
          "name": "vaultId",
          "type": "uint256"
        },
        {
          "internalType": "uint128",
          "name": "collDecrease",
          "type": "uint128"
        }
      ],
      "name": "decreaseVaultColl",
      "outputs": [],
      "stateMutability": "nonpayable",
      "type": "function"
    },
    {
      "inputs": [
        {
          "internalType": "uint256",
          "name": "vaultId",
          "type": "uint256"
        },
        {
          "internalType": "uint128",
          "name": "debtDecrease",
          "type": "uint128"
        }
      ],
      "name": "decreaseVaultDebt",
      "outputs": [],
      "stateMutability": "nonpayable",
      "type": "function"
    },
    {
      "inputs": [
        {
          "internalType": "uint256",
          "name": "vaultId",
          "type": "uint256"
        },
        {
          "internalType": "uint128",
          "name": "collIncrease",
          "type": "uint128"
        }
      ],
      "name": "increaseVaultColl",
      "outputs": [],
      "stateMutability": "payable",
      "type": "function"
    },
    {
      "inputs": [
        {
          "internalType": "uint256",
          "name": "vaultId",
          "type": "uint256"
        },
        {
          "internalType": "uint128",
          "name": "debtIncrease",
          "type": "uint128"
        }
      ],
      "name": "increaseVaultDebt",
      "outputs": [],
      "stateMutability": "nonpayable",
      "type": "function"
    },
    {
      "inputs": [
        {
          "internalType": "address",
          "name": "_pricefeed",
          "type": "address"
        }
      ],
      "name": "initialize",
      "outputs": [],
      "stateMutability": "nonpayable",
      "type": "function"
    },
    {
      "inputs": [],
      "name": "lastVaultId",
      "outputs": [
        {
          "internalType": "uint256",
          "name": "",
          "type": "uint256"
        }
      ],
      "stateMutability": "view",
      "type": "function"
    },
    {
      "inputs": [
        {
          "internalType": "address",
          "name": "owner",
          "type": "address"
        },
        {
          "internalType": "uint256",
          "name": "vaultId",
          "type": "uint256"
        }
      ],
      "name": "liquidate",
      "outputs": [],
      "stateMutability": "nonpayable",
      "type": "function"
    },
    {
      "inputs": [],
      "name": "minimumCollRatio",
      "outputs": [
        {
          "internalType": "uint96",
          "name": "ratio",
          "type": "uint96"
        },
        {
          "internalType": "uint96",
          "name": "dRatio",
          "type": "uint96"
        },
        {
          "internalType": "uint64",
          "name": "lastUpdate",
          "type": "uint64"
        }
      ],
      "stateMutability": "view",
      "type": "function"
    },
    {
      "inputs": [],
      "name": "rebaseIndices",
      "outputs": [
        {
          "internalType": "uint128",
          "name": "debtRebaseIndex",
          "type": "uint128"
        },
        {
          "internalType": "uint128",
          "name": "collRebaseIndex",
          "type": "uint128"
        },
        {
          "internalType": "uint256",
          "name": "lastUpdate",
          "type": "uint256"
        }
      ],
      "stateMutability": "view",
      "type": "function"
    },
    {
      "inputs": [
        {
          "internalType": "uint256",
          "name": "debtToRedeem",
          "type": "uint256"
        }
      ],
      "name": "redeem",
      "outputs": [],
      "stateMutability": "nonpayable",
      "type": "function"
    },
    {
      "inputs": [
        {
          "internalType": "bytes32",
          "name": "",
          "type": "bytes32"
        }
      ],
      "name": "vaults",
      "outputs": [
        {
          "internalType": "uint128",
          "name": "debt",
          "type": "uint128"
        },
        {
          "internalType": "uint128",
          "name": "collateral",
          "type": "uint128"
        },
        {
          "internalType": "uint128",
          "name": "lastDebtRebaseIndex",
          "type": "uint128"
        },
        {
          "internalType": "uint128",
          "name": "lastCollRebaseIndex",
          "type": "uint128"
        },
        {
          "internalType": "bool",
          "name": "isActive",
          "type": "bool"
        }
      ],
      "stateMutability": "view",
      "type": "function"
    }
  ],
  "transactionHash": "0x308d289e951e314e6a90205434bb997d638423bb4a83ccdbbf5f6dbeb08f5a1b",
  "args": [],
  "numDeployments": 1,
  "solcInputHash": "de120765170a3d5f1d4c8363d3866a53",
  "bytecode": "0x608060405234801561001057600080fd5b50604080516060808201835268010000000000000000808352602083018190524292840183905278010000000000000000000000000000000100000000000000006000556001929092558251908101909252819061006f9060696100eb565b6001600160601b03908116825260006020808401919091526001600160401b03428116604094850152845160028054938701519690950151909116600160c01b026001600160c01b039584166c01000000000000000000000000026001600160c01b031990931691909316171792909216919091179055610124565b6001600160801b0381811683821602808216919082811461011c57634e487b7160e01b600052601160045260246000fd5b505092915050565b612533806101336000396000f3fe6080604052600436106100c25760003560e01c8063b303ed3e1161007f578063c4d66de811610059578063c4d66de814610260578063cca23bf214610280578063d53bf23114610319578063db006a751461032c57600080fd5b8063b303ed3e146101ca578063b6c02c5314610220578063bcbaf4871461024057600080fd5b8063541ce9f9146100c75780635fd000f61461013b57806364f248e81461015f57806371a454fa1461017457806382b012f614610194578063a1b73c6d146101aa575b600080fd5b3480156100d357600080fd5b50600254610106906001600160601b0380821691600160601b810490911690600160c01b900467ffffffffffffffff1683565b604080516001600160601b03948516815293909216602084015267ffffffffffffffff16908201526060015b60405180910390f35b34801561014757600080fd5b5061015160045481565b604051908152602001610132565b61017261016d366004611600565b61034c565b005b34801561018057600080fd5b5061017261018f366004611622565b610487565b3480156101a057600080fd5b5061015160035481565b3480156101b657600080fd5b506101726101c5366004611622565b6106dd565b3480156101d657600080fd5b506000546001546101fa916001600160801b0380821692600160801b909204169083565b604080516001600160801b03948516815293909216602084015290820152606001610132565b34801561022c57600080fd5b5061017261023b366004611622565b6107d3565b34801561024c57600080fd5b5061017261025b366004611665565b61098a565b34801561026c57600080fd5b5061017261027b36600461168f565b610b3f565b34801561028c57600080fd5b506102de61029b3660046116aa565b6009602052600090815260409020805460018201546002909201546001600160801b0380831693600160801b938490048216938183169391049091169060ff1685565b604080516001600160801b0396871681529486166020860152928516928401929092529092166060820152901515608082015260a001610132565b610172610327366004611622565b610bea565b34801561033857600080fd5b506101726103473660046116aa565b610cde565b6040805180820190915260018152603160f81b6020820152346001600160801b038316146103965760405162461bcd60e51b815260040161038d91906116c3565b60405180910390fd5b5060006103a1611138565b905060006040518060a0016040528060006001600160801b03168152602001846001600160801b0316815260200183600001516001600160801b0316815260200183602001516001600160801b031681526020016001151581525090506000600354600161040f9190611727565b905061041e60093383856111c3565b8060038190555034600460008282546104379190611727565b90915550508251602084015160405133927fa02f9376a1f003e30f12b573dcf7a99ae2607b5cf56fbf5dee0383228415978e926104799286928a92909161173a565b60405180910390a250505050565b600061049161123c565b905060006104fb6104a46009338761139f565b6040805160a08101825282546001600160801b038082168352600160801b91829004811660208401526001850154808216948401949094529204909116606082015260029091015460ff16151560808201526113c5565b9050828160000181815161050f9190611761565b6001600160801b031690525060055460408051634c6afee560e11b8152905161060d92849286926001600160a01b03909216916398d5fdca916004808201926020929091908290030181865afa15801561056d573d6000803e3d6000fd5b505050506040513d601f19601f820116820180604052508101906105919190611788565b600560009054906101000a90046001600160a01b03166001600160a01b031663b5cddab86040518163ffffffff1660e01b8152600401602060405180830381865afa1580156105e4573d6000803e3d6000fd5b505050506040513d601f19601f820116820180604052508101906106089190611788565b6114bb565b1561061757600080fd5b61062460093386846111c3565b336001600160a01b03167f232cbdfd6582521a06ac79bed2ac190979061faac72582f7f5e6c952ed26edea85858460400151856060015160405161066b949392919061173a565b60405180910390a26006546040516340c10f1960e01b81526001600160a01b03909116906340c10f19906106a590339087906004016117a1565b600060405180830381600087803b1580156106bf57600080fd5b505af11580156106d3573d6000803e3d6000fd5b5050505050505050565b60006106ee6104a46009338661139f565b9050818160000181815161070291906117c3565b6001600160801b031690525061071b60093385846111c3565b336001600160a01b03167f7cdcc5af821891e1d43bf859c7a221de2533f377030d7c5cafd81057dd403f15848484604001518560600151604051610762949392919061173a565b60405180910390a2600654604051632770a7eb60e21b81526001600160a01b0390911690639dc29fac9061079c90339086906004016117a1565b600060405180830381600087803b1580156107b657600080fd5b505af11580156107ca573d6000803e3d6000fd5b50505050505050565b60006107dd61123c565b905060006107f06104a46009338761139f565b9050828160200181815161080491906117c3565b6001600160801b031690525060055460408051634c6afee560e11b8152905161086292849286926001600160a01b03909216916398d5fdca916004808201926020929091908290030181865afa15801561056d573d6000803e3d6000fd5b1561086c57600080fd5b826001600160801b03166004600082825461088791906117e3565b9091555061089a905060093386846111c3565b336001600160a01b03167ff34b33e9c452e748ad708279471ec50823775c428f1f290f6c1289fdca7b0fb58585846040015185606001516040516108e1949392919061173a565b60405180910390a26000336001600160a01b0316846001600160801b03166040515b60006040518083038185875af1925050503d8060008114610940576040519150601f19603f3d011682016040523d82523d6000602084013e610945565b606091505b5050905080604051806040016040528060018152602001603560f81b815250906109825760405162461bcd60e51b815260040161038d91906116c3565b505050505050565b600061099461123c565b905060006109a76104a46009868661139f565b9050610a018183600560009054906101000a90046001600160a01b03166001600160a01b03166398d5fdca6040518163ffffffff1660e01b8152600401602060405180830381865afa15801561056d573d6000803e3d6000fd5b604051806040016040528060018152602001603760f81b81525090610a395760405162461bcd60e51b815260040161038d91906116c3565b506000608082018190526020820151600480546001600160801b03909216929091610a659084906117e3565b90915550610a78905060098585846111c3565b6040518381526001600160a01b0385169033907faef3faf684172084346f7dc2cc3bb1328d1cc23caec12dd9a82d4a4e56c00b179060200160405180910390a36006548151604051632770a7eb60e21b81526001600160a01b0390921691639dc29fac91610aeb913391906004016117a1565b600060405180830381600087803b158015610b0557600080fd5b505af1158015610b19573d6000803e3d6000fd5b505050506000336001600160a01b031682602001516001600160801b0316604051610903565b6006546040805180820190915260018152600360fc1b6020820152906001600160a01b031615610b825760405162461bcd60e51b815260040161038d91906116c3565b50600580546001600160a01b0319166001600160a01b038316179055604051610baa906115d7565b604051809103906000f080158015610bc6573d6000803e3d6000fd5b50600680546001600160a01b0319166001600160a01b039290921691909117905550565b6040805180820190915260018152603160f81b6020820152346001600160801b03831614610c2b5760405162461bcd60e51b815260040161038d91906116c3565b506000610c3d6104a46009338661139f565b90508181602001818151610c519190611761565b6001600160801b0390811690915260048054918516925090600090610c77908490611727565b90915550610c8a905060093385846111c3565b336001600160a01b03167f68b234653c61dd8426f429013f53cd43776a5855a2453189bb31a1c8195a3836848484604001518560600151604051610cd1949392919061173a565b60405180910390a2505050565b600080600560009054906101000a90046001600160a01b03166001600160a01b03166398d5fdca6040518163ffffffff1660e01b8152600401602060405180830381865afa158015610d34573d6000803e3d6000fd5b505050506040513d601f19601f82011682018060405250810190610d589190611788565b600560009054906101000a90046001600160a01b03166001600160a01b031663b5cddab86040518163ffffffff1660e01b8152600401602060405180830381865afa158015610dab573d6000803e3d6000fd5b505050506040513d601f19601f82011682018060405250810190610dcf9190611788565b9092509050600082610de183866117f6565b610deb9190611823565b604080516060810182526000546001600160801b03808216808452600160801b90920416602083015260015492820183905292935091610e2a9161152e565b6001600160801b03168152600654604080516318160ddd60e01b815290516000926001600160a01b0316916318160ddd9160048083019260209291908290030181865afa158015610e7f573d6000803e3d6000fd5b505050506040513d601f19601f82011682018060405250810190610ea39190611788565b6004549091506000610eb588846117e3565b90506000610ec386846117e3565b85519091508290610edd906001600160801b0316866117f6565b610ee79190611823565b6001600160801b03908116865260208601516004548392610f099216906117f6565b610f139190611823565b6001600160801b031660208601526000610f2f856127106117f6565b600254909150600090610f5290600160601b90046001600160601b0316836117f6565b905060008b610f67600160401b6101f4611845565b6001600160801b0316610f7a91906117f6565b905082610f878284611727565b610f919190611823565b60028054600c90610fb3908490600160601b90046001600160601b0316611870565b82546001600160601b039182166101009390930a928302919092021990911617905550875160208901516001600160801b03908116600160801b029116176000556040808901516001555133907fe5b754fb1abb7f01b499791d0b820ae3b6af3424ac1c59768edb53f4ec31a92990611038908f908d90918252602082015260400190565b60405180910390a2600654604051632770a7eb60e21b8152336004820152602481018e90526001600160a01b0390911690639dc29fac90604401600060405180830381600087803b15801561108c57600080fd5b505af11580156110a0573d6000803e3d6000fd5b5050604051600092503391508b908381818185875af1925050503d80600081146110e6576040519150601f19603f3d011682016040523d82523d6000602084013e6110eb565b606091505b5050905080604051806040016040528060018152602001603560f81b815250906111285760405162461bcd60e51b815260040161038d91906116c3565b5050505050505050505050505050565b6040805160608101825260008082526020820181905291810191909152604080516060810182526000546001600160801b03808216808452600160801b9092041660208301526001549282018390529091611193919061152e565b6001600160801b0390811680835242604084018190526020840151909216600160801b0217600055600155919050565b808460006111d18686611590565b815260208082019290925260409081016000208351928401516001600160801b03938416600160801b918516820217825591840151606085015190841693169091029190911760018201556080909101516002909101805460ff191691151591909117905550505050565b604080516060810182526002546001600160601b038082168352600160601b8204166020830152600160c01b900467ffffffffffffffff16918101829052600091829061128990426117e3565b9050600061129c620151806127106117f6565b905060006112ae600160401b836117f6565b905060008185602001516001600160601b0316856112cc91906117f6565b6112d69084611727565b86516112eb91906001600160601b03166117f6565b6112f59190611823565b9050600083611305600a876117f6565b61130f90866117e3565b87602001516001600160601b031661132791906117f6565b6113319190611823565b604080516060810182526001600160601b038581168083529316602082018190524267ffffffffffffffff1691909201819052600280546001600160c01b031916909317600160601b909202919091176001600160c01b0316600160c01b9091021790555095945050505050565b60008360006113ae8585611590565b815260200190815260200160002090509392505050565b6040805160a0810182526000808252602082018190529181018290526060810182905260808101919091528160800151604051806040016040528060018152602001601b60f91b8152509061142d5760405162461bcd60e51b815260040161038d91906116c3565b506000611438611138565b8051604085015185519293506001600160801b039182169202168161145f5761145f61180d565b046001600160801b03908116845260208281015160608601519186015190831692910216816114905761149061180d565b046001600160801b039081166020858101919091528201518116606085015290511660408301525090565b6000806114cd600160401b6064611845565b6001600160801b03168487602001516001600160801b03166114ef91906117f6565b6114f991906117f6565b905060008387600001516001600160801b03168761151791906117f6565b61152191906117f6565b9091109695505050505050565b6000806115416301e133806127106117f6565b9050600061154f84426117e3565b90508161155e6101f4836117f6565b61156890846117e3565b61157b906001600160801b0388166117f6565b6115859190611823565b925050505b92915050565b6040516bffffffffffffffffffffffff19606084901b1660208201526034810182905260009060540160405160208183030381529060405280519060200120905092915050565b610c6d8061189183390190565b80356001600160801b03811681146115fb57600080fd5b919050565b60006020828403121561161257600080fd5b61161b826115e4565b9392505050565b6000806040838503121561163557600080fd5b82359150611645602084016115e4565b90509250929050565b80356001600160a01b03811681146115fb57600080fd5b6000806040838503121561167857600080fd5b6116818361164e565b946020939093013593505050565b6000602082840312156116a157600080fd5b61161b8261164e565b6000602082840312156116bc57600080fd5b5035919050565b600060208083528351808285015260005b818110156116f0578581018301518582016040015282016116d4565b506000604082860101526040601f19601f8301168501019250505092915050565b634e487b7160e01b600052601160045260246000fd5b8082018082111561158a5761158a611711565b9384526001600160801b039283166020850152908216604084015216606082015260800190565b6001600160801b0381811683821601908082111561178157611781611711565b5092915050565b60006020828403121561179a57600080fd5b5051919050565b6001600160a01b039290921682526001600160801b0316602082015260400190565b6001600160801b0382811682821603908082111561178157611781611711565b8181038181111561158a5761158a611711565b808202811582820484141761158a5761158a611711565b634e487b7160e01b600052601260045260246000fd5b60008261184057634e487b7160e01b600052601260045260246000fd5b500490565b6001600160801b0381811683821602808216919082811461186857611868611711565b505092915050565b6001600160601b038181168382160190808211156117815761178161171156fe608060405234801561001057600080fd5b50600080546001600160a01b0319163390811782556040519091907f8be0079c531659141344cd1fd0a4f28419497f9722a3daafe3b4186f6b6457e0908290a360408051808201825260128152712832b3b0b9bab99029ba30b13632b1b7b4b760711b6020918201528151808301835260018152603160f81b9082015281517f8b73c3c69bb8fe3d512ecc4cf759cc79239f7b179b0ffacaa9a75d522b39400f918101919091527f23726b7e40db55f8d05a1da7ca162bbeda3c1e340b8c44f40305dd35a4161119918101919091527fc89efdaa54c0f20c7adf612882df0950f5a951637e0307cdcb4c672f298b8bc660608201524660808201523060a082015260c00160408051601f198184030181529190528051602090910120600555600180546001600160a01b03191633179055610b1d806101506000396000f3fe608060405234801561001057600080fd5b50600436106101165760003560e01c806370a08231116100a257806395d89b411161007157806395d89b411461028f5780639dc29fac146102b2578063a9059cbb146102c5578063d505accf146102d8578063dd62ed3e146102eb57600080fd5b806370a08231146102215780637ecebe00146102415780638da5cb5b146102615780638f32d59b1461027c57600080fd5b806330adf81f116100e957806330adf81f146101af578063313ce567146101d65780633644e515146101f057806340c10f19146101f95780634eb03f6e1461020e57600080fd5b806306fdde031461011b578063095ea7b31461016257806318160ddd1461018557806323b872dd1461019c575b600080fd5b61014c604051806040016040528060128152602001712832b3b0b9bab99029ba30b13632b1b7b4b760711b81525081565b60405161015991906108fa565b60405180910390f35b610175610170366004610964565b610316565b6040519015158152602001610159565b61018e60025481565b604051908152602001610159565b6101756101aa36600461098e565b61032d565b61018e7f6e71edae12b1b97f4d1f60370fef10105fa2faae0126114a169c64845d6126c981565b6101de601281565b60405160ff9091168152602001610159565b61018e60055481565b61020c610207366004610964565b6103c2565b005b61020c61021c3660046109ca565b6104a1565b61018e61022f3660046109ca565b60036020526000908152604090205481565b61018e61024f3660046109ca565b60066020526000908152604090205481565b6000546040516001600160a01b039091168152602001610159565b6000546001600160a01b03163314610175565b61014c604051806040016040528060048152602001631c1554d160e21b81525081565b61020c6102c0366004610964565b61051d565b6101756102d3366004610964565b6105ed565b61020c6102e63660046109ec565b6105fa565b61018e6102f9366004610a5f565b600460209081526000928352604080842090915290825290205481565b60006103233384846107f0565b5060015b92915050565b6001600160a01b0383166000908152600460209081526040808320338452909152812054600019146103ad576001600160a01b0384166000908152600460209081526040808320338452909152902054610388908390610aa8565b6001600160a01b03851660009081526004602090815260408083203384529091529020555b6103b8848484610852565b5060019392505050565b6001805460408051808201909152918252600360fc1b60208301526001600160a01b0316331461040e5760405162461bcd60e51b815260040161040591906108fa565b60405180910390fd5b508060025461041d9190610abb565b6002556001600160a01b038216600090815260036020526040902054610444908290610abb565b6001600160a01b0383166000818152600360205260408082209390935591519091907fddf252ad1be2c89b69c2b068fc378daa952ba7f163c4a11628f55a4df523b3ef906104959085815260200190565b60405180910390a35050565b6000546001600160a01b031633146104fb5760405162461bcd60e51b815260206004820181905260248201527f4f776e61626c653a2063616c6c6572206973206e6f7420746865206f776e65726044820152606401610405565b600180546001600160a01b0319166001600160a01b0392909216919091179055565b6001805460408051808201909152918252600360fc1b60208301526001600160a01b031633146105605760405162461bcd60e51b815260040161040591906108fa565b506001600160a01b038216600090815260036020526040902054610585908290610aa8565b6001600160a01b0383166000908152600360205260409020556002546105ac908290610aa8565b6002556040518181526000906001600160a01b038416907fddf252ad1be2c89b69c2b068fc378daa952ba7f163c4a11628f55a4df523b3ef90602001610495565b6000610323338484610852565b6040805180820190915260018152603360f81b6020820152428510156106335760405162461bcd60e51b815260040161040591906108fa565b506005546001600160a01b038816600090815260066020526040812080549192917f6e71edae12b1b97f4d1f60370fef10105fa2faae0126114a169c64845d6126c9918b918b918b91908761068783610ace565b909155506040805160208101969096526001600160a01b0394851690860152929091166060840152608083015260a082015260c0810187905260e0016040516020818303038152906040528051906020012060405160200161070092919061190160f01b81526002810192909252602282015260420190565b60408051601f198184030181528282528051602091820120600080855291840180845281905260ff88169284019290925260608301869052608083018590529092509060019060a0016020604051602081039080840390855afa15801561076b573d6000803e3d6000fd5b5050604051601f1901519150506001600160a01b038116158015906107a15750886001600160a01b0316816001600160a01b0316145b604051806040016040528060018152602001600d60fa1b815250906107d95760405162461bcd60e51b815260040161040591906108fa565b506107e58989896107f0565b505050505050505050565b6001600160a01b0383811660008181526004602090815260408083209487168084529482529182902085905590518481527f8c5be1e5ebec7d5bd14f71427d1e84f3dd0314c0f7b2291e5b200ac8c7c3b92591015b60405180910390a3505050565b6001600160a01b038316600090815260036020526040902054610876908290610aa8565b6001600160a01b0380851660009081526003602052604080822093909355908416815220546108a6908290610abb565b6001600160a01b0380841660008181526003602052604090819020939093559151908516907fddf252ad1be2c89b69c2b068fc378daa952ba7f163c4a11628f55a4df523b3ef906108459085815260200190565b600060208083528351808285015260005b818110156109275785810183015185820160400152820161090b565b506000604082860101526040601f19601f8301168501019250505092915050565b80356001600160a01b038116811461095f57600080fd5b919050565b6000806040838503121561097757600080fd5b61098083610948565b946020939093013593505050565b6000806000606084860312156109a357600080fd5b6109ac84610948565b92506109ba60208501610948565b9150604084013590509250925092565b6000602082840312156109dc57600080fd5b6109e582610948565b9392505050565b600080600080600080600060e0888a031215610a0757600080fd5b610a1088610948565b9650610a1e60208901610948565b95506040880135945060608801359350608088013560ff81168114610a4257600080fd5b9699959850939692959460a0840135945060c09093013592915050565b60008060408385031215610a7257600080fd5b610a7b83610948565b9150610a8960208401610948565b90509250929050565b634e487b7160e01b600052601160045260246000fd5b8181038181111561032757610327610a92565b8082018082111561032757610327610a92565b600060018201610ae057610ae0610a92565b506001019056fea26469706673582212208879218e8ca3c812367fd82c519716b572bb63a69356b63dc8f76591567d97df64736f6c63430008110033a2646970667358221220e71438e39246434e68debdc0136eb11e22a6fe853ab820d99f44ac9e69c29ab664736f6c63430008110033",
  "devdoc": {
    "kind": "dev",
    "methods": {},
    "version": 1
  },
  "userdoc": {
    "kind": "user",
    "methods": {},
    "version": 1
  },
  "storageLayout": {
    "storage": [
      {
        "astId": 2168,
        "contract": "contracts/VaultManager.sol:VaultManager",
        "label": "rebaseIndices",
        "offset": 0,
        "slot": "0",
        "type": "t_struct(RebaseIndices)2158_storage"
      },
      {
        "astId": 2171,
        "contract": "contracts/VaultManager.sol:VaultManager",
        "label": "minimumCollRatio",
        "offset": 0,
        "slot": "2",
        "type": "t_struct(MinimumCollRatio)2165_storage"
      },
      {
        "astId": 2173,
        "contract": "contracts/VaultManager.sol:VaultManager",
        "label": "lastVaultId",
        "offset": 0,
        "slot": "3",
        "type": "t_uint256"
      },
      {
        "astId": 2175,
        "contract": "contracts/VaultManager.sol:VaultManager",
        "label": "collLocked",
        "offset": 0,
        "slot": "4",
        "type": "t_uint256"
      },
      {
        "astId": 2178,
        "contract": "contracts/VaultManager.sol:VaultManager",
        "label": "pricefeed",
        "offset": 0,
        "slot": "5",
        "type": "t_contract(IPriceFeed)3368"
      },
      {
        "astId": 2181,
        "contract": "contracts/VaultManager.sol:VaultManager",
        "label": "pegasusUSD",
        "offset": 0,
        "slot": "6",
        "type": "t_contract(PegasusUSD)2096"
      },
      {
        "astId": 2184,
        "contract": "contracts/VaultManager.sol:VaultManager",
        "label": "pyth",
        "offset": 0,
        "slot": "7",
        "type": "t_contract(IPyth)3505"
      },
      {
        "astId": 2186,
        "contract": "contracts/VaultManager.sol:VaultManager",
        "label": "price",
        "offset": 0,
        "slot": "8",
        "type": "t_uint128"
      },
      {
        "astId": 2191,
        "contract": "contracts/VaultManager.sol:VaultManager",
        "label": "vaults",
        "offset": 0,
        "slot": "9",
        "type": "t_mapping(t_bytes32,t_struct(State)3750_storage)"
      }
    ],
    "types": {
      "t_bool": {
        "encoding": "inplace",
        "label": "bool",
        "numberOfBytes": "1"
      },
      "t_bytes32": {
        "encoding": "inplace",
        "label": "bytes32",
        "numberOfBytes": "32"
      },
      "t_contract(IPriceFeed)3368": {
        "encoding": "inplace",
        "label": "contract IPriceFeed",
        "numberOfBytes": "20"
      },
      "t_contract(IPyth)3505": {
        "encoding": "inplace",
        "label": "contract IPyth",
        "numberOfBytes": "20"
      },
      "t_contract(PegasusUSD)2096": {
        "encoding": "inplace",
        "label": "contract PegasusUSD",
        "numberOfBytes": "20"
      },
      "t_mapping(t_bytes32,t_struct(State)3750_storage)": {
        "encoding": "mapping",
        "key": "t_bytes32",
        "label": "mapping(bytes32 => struct Vault.State)",
        "numberOfBytes": "32",
        "value": "t_struct(State)3750_storage"
      },
      "t_struct(MinimumCollRatio)2165_storage": {
        "encoding": "inplace",
        "label": "struct VaultManager.MinimumCollRatio",
        "members": [
          {
            "astId": 2160,
            "contract": "contracts/VaultManager.sol:VaultManager",
            "label": "ratio",
            "offset": 0,
            "slot": "0",
            "type": "t_uint96"
          },
          {
            "astId": 2162,
            "contract": "contracts/VaultManager.sol:VaultManager",
            "label": "dRatio",
            "offset": 12,
            "slot": "0",
            "type": "t_uint96"
          },
          {
            "astId": 2164,
            "contract": "contracts/VaultManager.sol:VaultManager",
            "label": "lastUpdate",
            "offset": 24,
            "slot": "0",
            "type": "t_uint64"
          }
        ],
        "numberOfBytes": "32"
      },
      "t_struct(RebaseIndices)2158_storage": {
        "encoding": "inplace",
        "label": "struct VaultManager.RebaseIndices",
        "members": [
          {
            "astId": 2153,
            "contract": "contracts/VaultManager.sol:VaultManager",
            "label": "debtRebaseIndex",
            "offset": 0,
            "slot": "0",
            "type": "t_uint128"
          },
          {
            "astId": 2155,
            "contract": "contracts/VaultManager.sol:VaultManager",
            "label": "collRebaseIndex",
            "offset": 16,
            "slot": "0",
            "type": "t_uint128"
          },
          {
            "astId": 2157,
            "contract": "contracts/VaultManager.sol:VaultManager",
            "label": "lastUpdate",
            "offset": 0,
            "slot": "1",
            "type": "t_uint256"
          }
        ],
        "numberOfBytes": "64"
      },
      "t_struct(State)3750_storage": {
        "encoding": "inplace",
        "label": "struct Vault.State",
        "members": [
          {
            "astId": 3741,
            "contract": "contracts/VaultManager.sol:VaultManager",
            "label": "debt",
            "offset": 0,
            "slot": "0",
            "type": "t_uint128"
          },
          {
            "astId": 3743,
            "contract": "contracts/VaultManager.sol:VaultManager",
            "label": "collateral",
            "offset": 16,
            "slot": "0",
            "type": "t_uint128"
          },
          {
            "astId": 3745,
            "contract": "contracts/VaultManager.sol:VaultManager",
            "label": "lastDebtRebaseIndex",
            "offset": 0,
            "slot": "1",
            "type": "t_uint128"
          },
          {
            "astId": 3747,
            "contract": "contracts/VaultManager.sol:VaultManager",
            "label": "lastCollRebaseIndex",
            "offset": 16,
            "slot": "1",
            "type": "t_uint128"
          },
          {
            "astId": 3749,
            "contract": "contracts/VaultManager.sol:VaultManager",
            "label": "isActive",
            "offset": 0,
            "slot": "2",
            "type": "t_bool"
          }
        ],
        "numberOfBytes": "96"
      },
      "t_uint128": {
        "encoding": "inplace",
        "label": "uint128",
        "numberOfBytes": "16"
      },
      "t_uint256": {
        "encoding": "inplace",
        "label": "uint256",
        "numberOfBytes": "32"
      },
      "t_uint64": {
        "encoding": "inplace",
        "label": "uint64",
        "numberOfBytes": "8"
      },
      "t_uint96": {
        "encoding": "inplace",
        "label": "uint96",
        "numberOfBytes": "12"
      }
    }
  }
}